:10027B007D347C07ED1D70011C144C70F7EF1F7063
:06028B00011E144E70EA92
:01029100224A
:1002FB001202637FF47E0112027B120003120213BF
:02030B0080FB75
:100263007594FF7593007592FF75910075960075EF
:08027300950012019B0202E854
:06000300538E7FD2AF22F4
:10030D0075A0FFC297D296D295AFA0C295EF20E708
:01031D00F6E9
:01031E0022BC
:10019B007F0F7E0012027B7F381202927F057E005A
:1001AB0012027B7F381202927F057E0012027B7F48
:1001BB00381202927F0C1202927F061202920203F5
:0101CB001F14
:05031F007F01020292C3
:10029200AE0712030DC297C2968EA0D2957F057E3D
:0702A2000012027BC295224D
:1002A900AE0712030DD297C2968EA0D2957F057E16
:0702B9000012027BC2952236
:1002C000ED70048F158005EF2440F515E515448089
:0402D000FF02029295
:10023100EF14600B14600C2402700D7F0680067FA2
:090241001880027F1C12029222B7
:1001CC008B128A1389141202C0AB12AA13A914122F
:1001DC00024A60130514E5147002051314F9120297
:0801EC004AFF1202A980E22281
:1002D400313630324C43440048454C4C4F20574F44
:0402E400524C440034
:1002E8005389F0438901758CF8758A30C28DD2A97B
:0302F800D28C2283
:03000B0002012AC5
:10012A00C0E0C0F0C083C082C0D075D000C000C09B
:10013A0001C002C003C004C005C006C007C28DC208
:10014A008C0516E51675F0C884E5F0701E7BFF7AFB
:10015A000279D4FD7F0A1201CC7BFF7A0279DC7D19
:10016A00017F0F1201CCAF0812023112000E758CFA
:10017A00F8758A30D28CD007D006D005D004D003C7
:10018A00D002D001D000D0D0D082D083D0F0D0E03D
:01019A003232
:1001F400010800010D00010E00010F0001100001B3
:0E0204001100010900010A00010B00010C00AD
:10000E0030C908750901E4F50E8019E5096015057A
:10001E000ED3E50E940A748094804008E4F50EF534
:10002E0009750D0130C808750A01E4F50F8019E550
:10003E000A6015050FD3E50F940A7480948040086A
:10004E00E4F50FF50A750D0230CA08750B01E4F5DB
:10005E00108019E50B60150510D3E510940A748015
:10006E0094804008E4F510F50B750D0330CB077541
:10007E000C01E4F51122E50C60150511D3E5119480
:10008E000A748094804008E4F511F50C750D042275
:10021300E50D24FE600C14600E2402700D750801B8
:0E02230080087508028003E4F508E4F50D225A
:0300000002009E5D
:0C009E00787FE4F6D8FD7581160200E5BD
:10024A00BB010689828A83E0225002E722BBFE02B2
:09025A00E32289828A83E49322E5
:1000AA000202FBE493A3F8E493A34003F68001F26F
:1000BA0008DFF48029E493A3F85407240CC8C33357
:1000CA00C4540F4420C8834004F456800146F6DF26
:1000DA00E4800B01020408102040809001F4E47EC1
:1000EA00019360BCA3FF543F30E509541FFEE4931B
:1000FA00A360010ECF54C025E060A840B8E493A3E2
:10010A00FAE493A3F8E493A3C8C582C8CAC583CA0C
:10011A00F0A3C8C582C8CAC583CADFE9DEE780BEC4
:0102120000EB
:00000001FF
